:100000000C942A000C94C1060C94EA060C94130775
:100010000C9447000C9447000C945D080C940B085A
:100020000C9434080C94E2070C94B9070C949007D4
:100030000C943C070C9496080C9447000C94BF0851
:100040000C9408050C9447000C9447000C9447004E
:100050000C94470011241FBECFE5D8E0DEBFCDBF12
:1000600011E0A0E6B0E0E4EDF1E102C005900D92F0
:10007000AA30B107D9F721E0AAE0B1E001C01D9292
:10008000A033B207E1F70E9403050C94E8080C9432
:1000900000000E942E060E9470040E94860880E0E4
:1000A0000E94650782E00E948907089561E086E06A
:1000B0000E943E060895CF92DF92EF92FF921F9327
:1000C000CF93DF930E94920810ED180F0E949208C0
:1000D000D0EDD80F0E949208C0EDC80F0E94920880
:1000E0008053C12ED12CE12CF12C0B2EBCE1CC0C79
:1000F000DD1CEE1CFF1CBA95D1F7B02D4D2F50E042
:1001000060E070E0742F662755274427C42AD52A5B
:10011000E62AF72A4C2F50E060E070E0032E34E12D
:10012000440F551F661F771F3A95D1F7302DC42A0B
:10013000D52AE62AF72A90E0A0E0B0E0DC01992772
:100140008827C82AD92AEA2AFB2A0E9492080E94F4
:100150009208C701B601DF91CF911F91FF90EF90F8
:10016000DF90CF900895CF92DF92EF92FF92CF93DE
:10017000C0E0C12CD12C76011BC00E94920890EDEA
:10018000980F9A3010F099EC980F9F70CC0CDD1CF2
:10019000EE1CFF1CCC0CDD1CEE1CFF1CCC0CDD1C73
:1001A000EE1CFF1CCC0CDD1CEE1CFF1CC92ACF5F13
:1001B000C83018F30E9492080E949208C701B60145
:1001C000CF91FF90EF90DF90CF9008950F931F9302
:1001D000CF93DF930E94920800ED080F0E949208CF
:1001E00010ED180F0E949208D0EDD80F0E949208CF
:1001F000C0EDC80F0E94B30060930E0170930F0111
:100200008093100190931101402F50E060E070E066
:10021000032E3CE1440F551F661F771F3A95D1F717
:10022000302D812F90E0A0E0B0E0B82FAA279927C9
:100230008827482B592B6A2B7B2B8D2F90E0A0E031
:10024000B0E0072E74E1880F991FAA1FBB1F7A9593
:10025000D1F7702D482B592B6A2B7B2B8C2F90E0DC
:10026000A0E0B0E0DC01992788278A019B01082BD8
:10027000192B2A2B3B2BC901B801DF91CF911F917C
:100280000F910895CF92DF92EF92FF92CF93C0E04B
:10029000C12CD12C76011BC00E94920890ED980FC2
:1002A0009A3010F099EC980F9F70CC0CDD1CEE1C6E
:1002B000FF1CCC0CDD1CEE1CFF1CCC0CDD1CEE1C52
:1002C000FF1CCC0CDD1CEE1CFF1CC92ACF5FC43008
:1002D00018F30E9492080E949208C701B601CF91BC
:1002E000FF90EF90DF90CF9008950F931F93CF93DF
:1002F000DF9310920A0110920B0110920C011092E0
:100300000D010E94920800ED080F0E94920810ED66
:10031000180F0E949208D0EDD80F0E949208C0EDED
:10032000C80F0E94420160930A0170930B018093F1
:100330000C0190930D01402F50E060E070E0032E1F
:100340003CE1440F551F661F771F3A95D1F7302DBA
:10035000812F90E0A0E0B0E0B82FAA279927882746
:10036000482B592B6A2B7B2B8D2F90E0A0E0B0E01F
:10037000072E74E1880F991FAA1FBB1F7A95D1F72A
:10038000702D482B592B6A2B7B2B8C2F90E0A0E0F3
:10039000B0E0DC01992788278A019B01082B192BE3
:1003A0002A2B3B2BC901B801DF91CF911F910F91EF
:1003B00008950F931F9342B720EA2A95F1F792B759
:1003C00080EA8A95F1F782B720EA2A95F1F7E2B739
:1003D00050E060E070E0342F222711270027492FDA
:1003E00050E060E070E0BA0155274427402B512BC4
:1003F000622B732B90E0A0E0B0E0BA2FA92F982FCA
:100400008827842B952BA62BB72BBC01CD016E2BF7
:100410001F910F910895CF93DF9300D000D0CDB7F7
:10042000DEB719821A821B821C8220E010C0822F44
:1004300090E0E1E0F0E0EC0FFD1FE80FF91FDC01B8
:10044000AE5EBE4F9C9185E0892780832F5F24306C
:1004500070F369817A818B819C810F900F900F904E
:100460000F90DF91CF910895CF92DF92EF92FF929C
:100470000F931F93CF93DF93CDB7DEB72C970FB6B3
:10048000F894DEBF0FBECDBF19821A821B821C8278
:100490001D821E821F82188619861A861B861C865C
:1004A0000E94F60480E790E00E94AE0419821A824E
:1004B0001B821C821D821E821F82188619861A8644
:1004C0001B861C8610920E0110920F0110921001D3
:1004D0001092110110920A0110920B0110920C015E
:1004E00010920D010E945B0069837A838B839C8349
:1004F000611571058140974251F50E94F60483E829
:1005000090E00E94AE040E94D901609312017093A2
:100510001301809314019093150113E008C0E12F9B
:10052000F0E0EE5EFE4F80810E94C10411501F3F3B
:10053000B1F760E083E00E948F048DE890E00E94B4
:10054000AE040E940B026B017C0111E02FC00E94DF
:10055000F60489E990E00E94AE0489819A81AB811A
:10056000BC81CD01AA27BB2789839A83AB83BC8337
:1005700011E00AC0E1E0F0E0EC0FFD1FE10FF11D1A
:1005800080810E94C10411501F3FA1F781EA90E0D1
:100590000E94AE0460E083E00E948F0485EA90E050
:1005A0000E94AE0410E0C12CD12C7601113009F06C
:1005B00055C00E94E6006D837E838F839887611506
:1005C000710582409742F9F480910E0190910F01DC
:1005D000A0911001B0911101C816D906EA06FB06D8
:1005E00091F4113081F40E94F60483EB90E00E94B4
:1005F000AE0460E083E00E948F048DE890E00E94EA
:10060000AE0412E02BC00E94F60489E990E00E943B
:10061000AE0489819A81AB81BC81CD01AA27BB2719
:1006200089839A83AB83BC8301E00AC0E5E0F0E0F4
:10063000EC0FFD1FE00FF11D80810E94C1040150ED
:100640000F3FA1F781EA90E00E94AE0460E083E0F2
:100650000E948F0485EA90E00E94AE04123009F0F7
:1006600067C00E94750169877A878B879C876115AF
:1006700071058140914389F580910A0190910B01A8
:10068000A0910C01B0910D0181159A4AA105B10507
:1006900021F5123011F50E9456000E94F6048AEBF3
:1006A00090E00E94AE0460E083E00E948F0480EC42
:1006B00090E00E94AE0460E084E00E948F048AEC27
:1006C00090E00E94AE048FEF9DE329E481509040BA
:1006D0002040E1F700C000002BC00E94F60489E929
:1006E00090E00E94AE0489819A81AB81BC81CD01EA
:1006F000AA27BB2789839A83AB83BC8311E00AC0F6
:10070000E9E0F0E0EC0FFD1FE10FF11D80810E9498
:10071000C10411501F3FA1F781EA90E00E94AE048E
:1007200060E083E00E948F048BED90E00E94AE04B5
:100730008FEF9DE329E4815090402040E1F700C015
:1007400000002C960FB6F894DEBF0FBECDBFDF9130
:10075000CF911F910F91FF90EF90DF90CF90089570
:10076000CF93C82F60E083E00E943E066C2F661F87
:100770006627661F8CE00E943E06C6FB662760F96E
:100780008AE00E943E06C5FB662760F989E00E9468
:100790003E06C4FB662760F988E00E943E0661E0E1
:1007A00082E00E943E068FE99FE00197F1F700C0CA
:1007B000000060E082E00E943E068FE99FE0019722
:1007C000F1F700C00000C3FB662760F98CE00E94CF
:1007D0003E06C2FB662760F98AE00E943E06C1FB26
:1007E000662760F989E00E943E066C2F617088E000
:1007F0000E943E0661E082E00E943E068FE99FE093
:100800000197F1F700C0000060E082E00E943E0620
:100810008FE99FE00197F1F700C00000CF910895A4
:10082000CF93C82F61E083E00E943E066C2F661FC5
:100830006627661F8CE00E943E06C6FB662760F9AD
:100840008AE00E943E06C5FB662760F989E00E94A7
:100850003E06C4FB662760F988E00E943E0661E020
:1008600082E00E943E068FE99FE00197F1F700C009
:10087000000060E082E00E943E068FE99FE0019761
:10088000F1F700C00000C3FB662760F98CE00E940E
:100890003E06C2FB662760F98AE00E943E06C1FB65
:1008A000662760F989E00E943E066C2F617088E03F
:1008B0000E943E0661E082E00E943E068FE99FE0D2
:1008C0000197F1F700C0000060E082E00E943E0660
:1008D0008FE99FE00197F1F700C00000CF910895E4
:1008E0002FE785EB91E0215080409040E1F700C078
:1008F000000082E00E94B00388E20E94B0038CE016
:100900000E94B00381E00E94B0038FE99FE001974D
:10091000F1F700C0000086E00E94B0030895813026
:1009200029F480E8860F0E94B0030895823029F4EC
:1009300080EC860F0E94B0030895833029F484E987
:10094000860F0E94B0030895843021F484ED860F51
:100950000E94B00308950E94100408950F931F93FE
:10096000CF938C01C0E003C00E941004CF5FF80158
:10097000EC0FF11D80818111F7CFCF911F910F9165
:1009800008951F93CF93DF93CDB7DEB760970FB66F
:10099000F894DEBF0FBECDBF182F80E1E0E6F0E097
:1009A000DE01119601900D928A95E1F7812F8295D3
:1009B0008F70E1E0F0E0EC0FFD1FE80FF11D80818A
:1009C0000E94AB041F70E1E0F0E0EC0FFD1FE10FAF
:1009D000F11D80810E94AB0460960FB6F894DEBFD3
:1009E0000FBECDBFDF91CF911F91089581E00E948E
:1009F000B0038FE39FE10197F1F700C0000080E8AA
:100A00000E94B00308950E9449000E943402FDCF65
:100A10001F920F920FB60F9211242F933F934F9373
:100A20005F936F937F938F939F93AF93BF93EF9356
:100A3000FF93E0911601F0911701309709F00995A5
:100A4000FF91EF91BF91AF919F918F917F916F91A6
:100A50005F914F913F912F910F900FBE0F901F907C
:100A60001895982F9770869586958695613009F42C
:100A700055C020F0623009F4A1C008958130C1F062
:100A800028F0823039F18330B9F108954AB321E07A
:100A900030E0B90102C0660F771F9A95E2F7CB01EB
:100AA000942F982B9ABB9BB3809589238BBB089579
:100AB00047B321E030E0B90102C0660F771F9A9575
:100AC000E2F7CB01942F982B97BB98B3809589239D
:100AD00088BB089544B321E030E0B90102C0660F3D
:100AE000771F9A95E2F7CB01942F982B94BB95B37F
:100AF0008095892385BB089541B321E030E0B90199
:100B000002C0660F771F9A95E2F7CB01942F982BBE
:100B100091BB92B38095892382BB08958130C1F047
:100B200028F0823039F18330B9F108954AB321E0D9
:100B300030E0B90102C0660F771F9A95E2F7CB014A
:100B40008095942F98239ABB9BB389238BBB0895E0
:100B500047B321E030E0B90102C0660F771F9A95D4
:100B6000E2F7CB018095942F982397BB98B3892304
:100B700088BB089544B321E030E0B90102C0660F9C
:100B8000771F9A95E2F7CB018095942F982394BB19
:100B900095B3892385BB089541B321E030E0B901C5
:100BA00002C0660F771F9A95E2F7CB018095942FCC
:100BB000982391BB92B3892382BB08958130C1F001
:100BC00028F0823039F18330B9F108954AB321E039
:100BD00030E0B90102C0660F771F9A95E2F7CB01AA
:100BE000962F909594239ABB9BB3892B8BBB08952A
:100BF00047B321E030E0B90102C0660F771F9A9534
:100C0000E2F7CB01962F9095942397BB98B3892B4D
:100C100088BB089544B321E030E0B90102C0660FFB
:100C2000771F9A95E2F7CB01962F9095942394BB6A
:100C300095B3892B85BB089541B321E030E0B9011C
:100C400002C0660F771F9A95E2F7CB01962F909519
:100C5000942391BB92B3892B82BB0895CF93C0E0BC
:100C600009C0EC2FF0E0E651FF4F60818C2F0E940D
:100C70003105CF5FC032A8F3CF910895982F9770B8
:100C80008695869586956130E1F5813099F028F05A
:100C90008230E9F0833041F108954BB321E030E038
:100CA000B90102C0660F771F9A95E2F7CB01842B3A
:100CB0008BBB089548B321E030E0B90102C0660F54
:100CC000771F9A95E2F7CB01842B88BB089545B333
:100CD00021E030E0B90102C0660F771F9A95E2F774
:100CE000CB01842B85BB089542B321E030E0B901EC
:100CF00002C0660F771F9A95E2F7CB01842B82BB67
:100D000008958130A1F028F08230F9F0833059F154
:100D100008954BB321E030E0B90102C0660F771FA0
:100D20009A95E2F7CB01809584238BBB089548B355
:100D300021E030E0B90102C0660F771F9A95E2F713
:100D4000CB018095842388BB089545B321E030E032
:100D5000B90102C0660F771F9A95E2F7CB01809523
:100D6000842385BB089542B321E030E0B90102C07D
:100D7000660F771F9A95E2F7CB018095842382BB9B
:100D800008951F920F920FB60F9211242F933F9345
:100D90004F935F936F937F938F939F93AF93BF9383
:100DA000EF93FF93E0911C01F0911D01309709F042
:100DB0000995FF91EF91BF91AF919F918F917F9195
:100DC0006F915F914F913F912F910F900FBE0F90B8
:100DD0001F9018951F920F920FB60F9211242F9308
:100DE0003F934F935F936F937F938F939F93AF93B3
:100DF000BF93EF93FF93E0911A01F0911B0130979D
:100E000009F00995FF91EF91BF91AF919F918F915B
:100E10007F916F915F914F913F912F910F900FBEF6
:100E20000F901F9018951F920F920FB60F921124DA
:100E30002F933F934F935F936F937F938F939F93E2
:100E4000AF93BF93EF93FF93E0911801F0911901D5
:100E5000309709F00995FF91EF91BF91AF919F9164
:100E60008F917F916F915F914F913F912F910F9053
:100E70000FBE0F901F9018951F920F920FB60F92F2
:100E800011242F933F934F935F936F937F938F938F
:100E90009F93AF93BF93EF93FF93E0911E01F09167
:100EA0001F01309709F00995FF91EF91BF91AF9124
:100EB0009F918F917F916F915F914F913F912F9172
:100EC0000F900FBE0F901F901895813069F028F099
:100ED000823089F08330B1F0089583B78F7B83BF70
:100EE00083B7877F83BF089583B7806483BF83B749
:100EF000877F83BF089583B78F7B83BF83B7886065
:100F000083BF089583B7806483BF83B7886083BF3E
:100F1000089593B7987F93BF93B7892B83BF0895A4
:100F20001F920F920FB60F9211242F933F934F935E
:100F30005F936F937F938F939F93AF93BF93EF9341
:100F4000FF93E0912201F0912301309709F0099578
:100F5000FF91EF91BF91AF919F918F917F916F9191
:100F60005F914F913F912F910F900FBE0F901F9067
:100F700018951F920F920FB60F9211242F933F9343
:100F80004F935F936F937F938F939F93AF93BF9391
:100F9000EF93FF93E0912001F0912101309709F048
:100FA0000995FF91EF91BF91AF919F918F917F91A3
:100FB0006F915F914F913F912F910F900FBE0F90C6
:100FC0001F9018951F920F920FB60F9211242F9316
:100FD0003F934F935F936F937F938F939F93AF93C1
:100FE000BF93EF93FF93E0912A01F0912B0130978B
:100FF00009F00995FF91EF91BF91AF919F918F916A
:101000007F916F915F914F913F912F910F900FBE04
:101010000F901F9018951F920F920FB60F921124E8
:101020002F933F934F935F936F937F938F939F93F0
:10103000AF93BF93EF93FF93E0912801F0912901C3
:10104000309709F00995FF91EF91BF91AF919F9172
:101050008F917F916F915F914F913F912F910F9061
:101060000FBE0F901F9018951F920F920FB60F9200
:1010700011242F933F934F935F936F937F938F939D
:101080009F93AF93BF93EF93FF93E0912601F0916D
:101090002701309709F00995FF91EF91BF91AF912A
:1010A0009F918F917F916F915F914F913F912F9180
:1010B0000F900FBE0F901F9018951F920F920FB6B2
:1010C0000F9211242F933F934F935F936F937F93CE
:1010D0008F939F93AF93BF93EF93FF93E09124017E
:1010E000F0912501309709F00995FF91EF91BF919B
:1010F000AF919F918F917F916F915F914F913F91B0
:101100002F910F900FBE0F901F90189587E689B909
:101110008BB18D7F8BB98AB180618AB98AB18860C1
:101120008AB908955F9BFECF8CB108951F920F92EC
:101130000FB60F9211242F933F934F935F936F93AA
:101140007F938F939F93AF93BF93EF93FF93E09120
:101150002E01F0912F01309709F00995FF91EF9141
:10116000BF91AF919F918F917F916F915F914F91BF
:101170003F912F910F900FBE0F901F9018951F92C7
:101180000F920FB60F9211242F933F934F935F93BB
:101190006F937F938F939F93AF93BF93EF93FF933F
:1011A000E0912C01F0912D01309709F00995FF9104
:1011B000EF91BF91AF919F918F917F916F915F91CF
:1011C0004F913F912F910F900FBE0F901F90189548
:0411D000F894FFCFC1
:1011D4003031323334353637383941424344454669
:1011E40073656375726520646961676E6F73746992
:1011F40063730036372030312020202000416363A0
:1012040065737320446F6E65004E52432037462049
:1012140000203335004163636573732044656E6950
:1012240065640036372030322000373730312000F3
:101234005461736B20446F6E65006C656420697340
:10124400207475726E6564206F6E005461736B2038
:10125400556E646566696E656400010100000000F6
:101264000001000000000000000002020000000075
:0A127400000000000000000202026A
:00000001FF
